{
  "_format": "hh-sol-artifact-1",
  "contractName": "Swap",
  "sourceName": "contracts/Swap.sol",
  "abi": [
    {
      "inputs": [
        {
          "internalType": "address",
          "name": "target",
          "type": "address"
        }
      ],
      "name": "AddressEmptyCode",
      "type": "error"
    },
    {
      "inputs": [
        {
          "internalType": "address",
          "name": "account",
          "type": "address"
        }
      ],
      "name": "AddressInsufficientBalance",
      "type": "error"
    },
    {
      "inputs": [],
      "name": "AddressZeroDetected",
      "type": "error"
    },
    {
      "inputs": [],
      "name": "FailedInnerCall",
      "type": "error"
    },
    {
      "inputs": [],
      "name": "InsufficientBalance",
      "type": "error"
    },
    {
      "inputs": [],
      "name": "InvalidOrder",
      "type": "error"
    },
    {
      "inputs": [],
      "name": "InvalidOrderId",
      "type": "error"
    },
    {
      "inputs": [],
      "name": "OrderNotActive",
      "type": "error"
    },
    {
      "inputs": [],
      "name": "ReentrancyGuardReentrantCall",
      "type": "error"
    },
    {
      "inputs": [
        {
          "internalType": "address",
          "name": "token",
          "type": "address"
        }
      ],
      "name": "SafeERC20FailedOperation",
      "type": "error"
    },
    {
      "inputs": [],
      "name": "SellerisBuyer",
      "type": "error"
    },
    {
      "inputs": [],
      "name": "TransactionCompleted",
      "type": "error"
    },
    {
      "inputs": [],
      "name": "ZeroValueNotAllowed",
      "type": "error"
    },
    {
      "inputs": [],
      "name": "usernOTowner",
      "type": "error"
    },
    {
      "anonymous": false,
      "inputs": [
        {
          "indexed": false,
          "internalType": "uint256",
          "name": "orderId",
          "type": "uint256"
        }
      ],
      "name": "OrderCancelled",
      "type": "event"
    },
    {
      "anonymous": false,
      "inputs": [
        {
          "indexed": false,
          "internalType": "address",
          "name": "user",
          "type": "address"
        },
        {
          "indexed": false,
          "internalType": "uint256",
          "name": "amount",
          "type": "uint256"
        },
        {
          "indexed": false,
          "internalType": "uint256",
          "name": "orderId",
          "type": "uint256"
        }
      ],
      "name": "OrderCreated",
      "type": "event"
    },
    {
      "anonymous": false,
      "inputs": [
        {
          "indexed": false,
          "internalType": "uint256",
          "name": "orderId",
          "type": "uint256"
        }
      ],
      "name": "Orderfilled",
      "type": "event"
    },
    {
      "inputs": [
        {
          "internalType": "uint256",
          "name": "_orderId",
          "type": "uint256"
        }
      ],
      "name": "cancelOrder",
      "outputs": [],
      "stateMutability": "nonpayable",
      "type": "function"
    },
    {
      "inputs": [
        {
          "internalType": "address",
          "name": "_sellToken",
          "type": "address"
        },
        {
          "internalType": "address",
          "name": "_buyToken",
          "type": "address"
        },
        {
          "internalType": "uint256",
          "name": "_amount",
          "type": "uint256"
        }
      ],
      "name": "createOrder",
      "outputs": [],
      "stateMutability": "nonpayable",
      "type": "function"
    },
    {
      "inputs": [
        {
          "internalType": "uint256",
          "name": "_orderId",
          "type": "uint256"
        }
      ],
      "name": "fillOrder",
      "outputs": [],
      "stateMutability": "nonpayable",
      "type": "function"
    },
    {
      "inputs": [],
      "name": "getUsersOrder",
      "outputs": [
        {
          "components": [
            {
              "internalType": "uint256",
              "name": "id",
              "type": "uint256"
            },
            {
              "internalType": "address",
              "name": "maker",
              "type": "address"
            },
            {
              "internalType": "address",
              "name": "sellToken",
              "type": "address"
            },
            {
              "internalType": "address",
              "name": "buyToken",
              "type": "address"
            },
            {
              "internalType": "uint256",
              "name": "sellAmount",
              "type": "uint256"
            },
            {
              "internalType": "uint256",
              "name": "buyAmount",
              "type": "uint256"
            },
            {
              "internalType": "bool",
              "name": "isOrderActive",
              "type": "bool"
            }
          ],
          "internalType": "struct Swap.Order[]",
          "name": "",
          "type": "tuple[]"
        }
      ],
      "stateMutability": "view",
      "type": "function"
    }
  ],
  "bytecode": "0x608060405234801561001057600080fd5b506001600081905550611685806100286000396000f3fe608060405234801561001057600080fd5b506004361061004c5760003560e01c806320fe3f8c14610051578063514fcac71461006f57806367b830ad1461008b5780639a5d6a4a146100a7575b600080fd5b6100596100c3565b6040516100669190611239565b60405180910390f35b6100896004803603810190610084919061128c565b610363565b005b6100a560048036038101906100a0919061128c565b61052a565b005b6100c160048036038101906100bc91906112e5565b610881565b005b60606000600360003373ffffffffffffffffffffffffffffffffffffffff1673ffffffffffffffffffffffffffffffffffffffff16815260200190815260200160002080548060200260200160405190810160405280929190818152602001828054801561015057602002820191906000526020600020905b81548152602001906001019080831161013c575b505050505090506000815167ffffffffffffffff81111561017457610173611338565b5b6040519080825280602002602001820160405280156101ad57816020015b61019a611006565b8152602001906001900390816101925790505b50905060005b825181101561035a57600260008483815181106101d3576101d2611367565b5b602002602001015181526020019081526020016000206040518060e0016040529081600082015481526020016001820160009054906101000a900473ffffffffffffffffffffffffffffffffffffffff1673ffffffffffffffffffffffffffffffffffffffff1673ffffffffffffffffffffffffffffffffffffffff1681526020016002820160009054906101000a900473ffffffffffffffffffffffffffffffffffffffff1673ffffffffffffffffffffffffffffffffffffffff1673ffffffffffffffffffffffffffffffffffffffff1681526020016003820160009054906101000a900473ffffffffffffffffffffffffffffffffffffffff1673ffffffffffffffffffffffffffffffffffffffff1673ffffffffffffffffffffffffffffffffffffffff16815260200160048201548152602001600582015481526020016006820160009054906101000a900460ff16151515158152505082828151811061034257610341611367565b5b602002602001018190525080806001019150506101b3565b50809250505090565b61036b610c67565b60006002600083815260200190815260200160002090508060060160009054906101000a900460ff166103ca576040517f1d4ecc5b00000000000000000000000000000000000000000000000000000000815260040160405180910390fd5b3373ffffffffffffffffffffffffffffffffffffffff168160010160009054906101000a900473ffffffffffffffffffffffffffffffffffffffff1673ffffffffffffffffffffffffffffffffffffffff1614610453576040517fe37f55c600000000000000000000000000000000000000000000000000000000815260040160405180910390fd5b6104ca8160010160009054906101000a900473ffffffffffffffffffffffffffffffffffffffff1682600501548360020160009054906101000a900473ffffffffffffffffffffffffffffffffffffffff1673ffffffffffffffffffffffffffffffffffffffff16610cad9092919063ffffffff16565b60008160060160006101000a81548160ff0219169083151502179055507f61b9399f2f0f32ca39ce8d7be32caed5ec22fe07a6daba3a467ed479ec6065828260405161051691906113a5565b60405180910390a150610527610d2c565b50565b610532610c67565b600073ffffffffffffffffffffffffffffffffffffffff163373ffffffffffffffffffffffffffffffffffffffff1603610598576040517f287170f900000000000000000000000000000000000000000000000000000000815260040160405180910390fd5b60006002600083815260200190815260200160002090508060010160009054906101000a900473ffffffffffffffffffffffffffffffffffffffff1673ffffffffffffffffffffffffffffffffffffffff163373ffffffffffffffffffffffffffffffffffffffff1603610638576040517f14e522b400000000000000000000000000000000000000000000000000000000815260040160405180910390fd5b600154821115610674576040517faf61069300000000000000000000000000000000000000000000000000000000815260040160405180910390fd5b60008160030160009054906101000a900473ffffffffffffffffffffffffffffffffffffffff1673ffffffffffffffffffffffffffffffffffffffff166370a08231336040518263ffffffff1660e01b81526004016106d391906113cf565b602060405180830381865afa1580156106f0573d6000803e3d6000fd5b505050506040513d601f19601f8201168201806040525081019061071491906113ff565b90508160050154811015610754576040517ff4d678b800000000000000000000000000000000000000000000000000000000815260040160405180910390fd5b6107cd338360010160009054906101000a900473ffffffffffffffffffffffffffffffffffffffff1684600501548560030160009054906101000a900473ffffffffffffffffffffffffffffffffffffffff1673ffffffffffffffffffffffffffffffffffffffff16610d36909392919063ffffffff16565b6108203383600401548460020160009054906101000a900473ffffffffffffffffffffffffffffffffffffffff1673ffffffffffffffffffffffffffffffffffffffff16610cad9092919063ffffffff16565b60008260060160006101000a81548160ff0219169083151502179055507fadbdb293e5154f933f56a786658053c937c9948b745a7753449fc1dbd9a42d868360405161086c91906113a5565b60405180910390a1505061087e610d2c565b50565b610889610c67565b600073ffffffffffffffffffffffffffffffffffffffff163373ffffffffffffffffffffffffffffffffffffffff16036108ef576040517f287170f900000000000000000000000000000000000000000000000000000000815260040160405180910390fd5b60008111610929576040517f9cf8540c00000000000000000000000000000000000000000000000000000000815260040160405180910390fd5b600073ffffffffffffffffffffffffffffffffffffffff168373ffffffffffffffffffffffffffffffffffffffff160361098f576040517f287170f900000000000000000000000000000000000000000000000000000000815260040160405180910390fd5b600073ffffffffffffffffffffffffffffffffffffffff168273ffffffffffffffffffffffffffffffffffffffff16036109f5576040517f287170f900000000000000000000000000000000000000000000000000000000815260040160405180910390fd5b60008373ffffffffffffffffffffffffffffffffffffffff166370a08231336040518263ffffffff1660e01b8152600401610a3091906113cf565b602060405180830381865afa158015610a4d573d6000803e3d6000fd5b505050506040513d601f19601f82011682018060405250810190610a7191906113ff565b905081811015610aad576040517ff4d678b800000000000000000000000000000000000000000000000000000000815260040160405180910390fd5b610ada3330848773ffffffffffffffffffffffffffffffffffffffff16610d36909392919063ffffffff16565b600060018054610aea919061145b565b90506000600260008381526020019081526020016000209050818160000181905550338160010160006101000a81548173ffffffffffffffffffffffffffffffffffffffff021916908373ffffffffffffffffffffffffffffffffffffffff160217905550858160020160006101000a81548173ffffffffffffffffffffffffffffffffffffffff021916908373ffffffffffffffffffffffffffffffffffffffff160217905550848160030160006101000a81548173ffffffffffffffffffffffffffffffffffffffff021916908373ffffffffffffffffffffffffffffffffffffffff16021790555083816004018190555083816005018190555060018160060160006101000a81548160ff02191690831515021790555060016000815480929190610c179061148f565b91905055507fbb4cd350108fec46a02c87acb34a38f6c465fb2dc050687359c97229703bb8f4338584604051610c4f939291906114d7565b60405180910390a1505050610c62610d2c565b505050565b600260005403610ca3576040517f3ee5aeb500000000000000000000000000000000000000000000000000000000815260040160405180910390fd5b6002600081905550565b610d27838473ffffffffffffffffffffffffffffffffffffffff1663a9059cbb8585604051602401610ce092919061150e565b604051602081830303815290604052915060e01b6020820180517bffffffffffffffffffffffffffffffffffffffffffffffffffffffff8381831617835250505050610db8565b505050565b6001600081905550565b610db2848573ffffffffffffffffffffffffffffffffffffffff166323b872dd868686604051602401610d6b93929190611537565b604051602081830303815290604052915060e01b6020820180517bffffffffffffffffffffffffffffffffffffffffffffffffffffffff8381831617835250505050610db8565b50505050565b6000610de3828473ffffffffffffffffffffffffffffffffffffffff16610e4f90919063ffffffff16565b90506000815114158015610e08575080806020019051810190610e06919061159a565b155b15610e4a57826040517f5274afe7000000000000000000000000000000000000000000000000000000008152600401610e4191906113cf565b60405180910390fd5b505050565b6060610e5d83836000610e65565b905092915050565b606081471015610eac57306040517fcd786059000000000000000000000000000000000000000000000000000000008152600401610ea391906113cf565b60405180910390fd5b6000808573ffffffffffffffffffffffffffffffffffffffff168486604051610ed59190611638565b60006040518083038185875af1925050503d8060008114610f12576040519150601f19603f3d011682016040523d82523d6000602084013e610f17565b606091505b5091509150610f27868383610f32565b925050509392505050565b606082610f4757610f4282610fc1565b610fb9565b60008251148015610f6f575060008473ffffffffffffffffffffffffffffffffffffffff163b145b15610fb157836040517f9996b315000000000000000000000000000000000000000000000000000000008152600401610fa891906113cf565b60405180910390fd5b819050610fba565b5b9392505050565b600081511115610fd45780518082602001fd5b6040517f1425ea4200000000000000000000000000000000000000000000000000000000815260040160405180910390fd5b6040518060e0016040528060008152602001600073ffffffffffffffffffffffffffffffffffffffff168152602001600073ffffffffffffffffffffffffffffffffffffffff168152602001600073ffffffffffffffffffffffffffffffffffffffff16815260200160008152602001600081526020016000151581525090565b600081519050919050565b600082825260208201905092915050565b6000819050602082019050919050565b6000819050919050565b6110c6816110b3565b82525050565b600073ffffffffffffffffffffffffffffffffffffffff82169050919050565b60006110f7826110cc565b9050919050565b611107816110ec565b82525050565b60008115159050919050565b6111228161110d565b82525050565b60e08201600082015161113e60008501826110bd565b50602082015161115160208501826110fe565b50604082015161116460408501826110fe565b50606082015161117760608501826110fe565b50608082015161118a60808501826110bd565b5060a082015161119d60a08501826110bd565b5060c08201516111b060c0850182611119565b50505050565b60006111c28383611128565b60e08301905092915050565b6000602082019050919050565b60006111e682611087565b6111f08185611092565b93506111fb836110a3565b8060005b8381101561122c57815161121388826111b6565b975061121e836111ce565b9250506001810190506111ff565b5085935050505092915050565b6000602082019050818103600083015261125381846111db565b905092915050565b600080fd5b611269816110b3565b811461127457600080fd5b50565b60008135905061128681611260565b92915050565b6000602082840312156112a2576112a161125b565b5b60006112b084828501611277565b91505092915050565b6112c2816110ec565b81146112cd57600080fd5b50565b6000813590506112df816112b9565b92915050565b6000806000606084860312156112fe576112fd61125b565b5b600061130c868287016112d0565b935050602061131d868287016112d0565b925050604061132e86828701611277565b9150509250925092565b7f4e487b7100000000000000000000000000000000000000000000000000000000600052604160045260246000fd5b7f4e487b7100000000000000000000000000000000000000000000000000000000600052603260045260246000fd5b61139f816110b3565b82525050565b60006020820190506113ba6000830184611396565b92915050565b6113c9816110ec565b82525050565b60006020820190506113e460008301846113c0565b92915050565b6000815190506113f981611260565b92915050565b6000602082840312156114155761141461125b565b5b6000611423848285016113ea565b91505092915050565b7f4e487b7100000000000000000000000000000000000000000000000000000000600052601160045260246000fd5b6000611466826110b3565b9150611471836110b3565b92508282019050808211156114895761148861142c565b5b92915050565b600061149a826110b3565b91507fffffffffffffffffffffffffffffffffffffffffffffffffffffffffffffffff82036114cc576114cb61142c565b5b600182019050919050565b60006060820190506114ec60008301866113c0565b6114f96020830185611396565b6115066040830184611396565b949350505050565b600060408201905061152360008301856113c0565b6115306020830184611396565b9392505050565b600060608201905061154c60008301866113c0565b61155960208301856113c0565b6115666040830184611396565b949350505050565b6115778161110d565b811461158257600080fd5b50565b6000815190506115948161156e565b92915050565b6000602082840312156115b0576115af61125b565b5b60006115be84828501611585565b91505092915050565b600081519050919050565b600081905092915050565b60005b838110156115fb5780820151818401526020810190506115e0565b60008484015250505050565b6000611612826115c7565b61161c81856115d2565b935061162c8185602086016115dd565b80840191505092915050565b60006116448284611607565b91508190509291505056fea2646970667358221220d2f39e532c0cb6a3d546e5ad1f5b04b95ba9376ccf05e9714e2c417b6038ffa764736f6c63430008180033",
  "linkReferences": {},
  "deployedLinkReferences": {}
}